{
  "contractName": "First",
  "abi": [
    {
      "inputs": [],
      "name": "mydata",
      "outputs": [
        {
          "internalType": "int256",
          "name": "",
          "type": "int256"
        }
      ],
      "stateMutability": "view",
      "type": "function",
      "constant": true
    },
    {
      "inputs": [
        {
          "internalType": "int256",
          "name": "_data",
          "type": "int256"
        }
      ],
      "name": "GetDouble",
      "outputs": [
        {
          "internalType": "int256",
          "name": "_output",
          "type": "int256"
        }
      ],
      "stateMutability": "nonpayable",
      "type": "function"
    }
  ],
  "bytecode": "0x608060405234801561001057600080fd5b506102c6806100206000396000f3fe608060405234801561001057600080fd5b50600436106100365760003560e01c80631d24b7e91461003b5780636f18a95f14610059575b600080fd5b610043610089565b60405161005091906100d1565b60405180910390f35b610073600480360381019061006e919061011d565b61008f565b60405161008091906100d1565b60405180910390f35b60005481565b600060028261009e9190610179565b6000819055506002826100b19190610179565b9050919050565b6000819050919050565b6100cb816100b8565b82525050565b60006020820190506100e660008301846100c2565b92915050565b600080fd5b6100fa816100b8565b811461010557600080fd5b50565b600081359050610117816100f1565b92915050565b600060208284031215610133576101326100ec565b5b600061014184828501610108565b91505092915050565b7f4e487b7100000000000000000000000000000000000000000000000000000000600052601160045260246000fd5b6000610184826100b8565b915061018f836100b8565b9250827f7fffffffffffffffffffffffffffffffffffffffffffffffffffffffffffffff04821160008413600084131616156101ce576101cd61014a565b5b817f8000000000000000000000000000000000000000000000000000000000000000058312600084126000841316161561020b5761020a61014a565b5b827f800000000000000000000000000000000000000000000000000000000000000005821260008413600084121616156102485761024761014a565b5b827f7fffffffffffffffffffffffffffffffffffffffffffffffffffffffffffffff05821260008412600084121616156102855761028461014a565b5b82820290509291505056fea264697066735822122034c3b75a7fafc647c37517fa6d621be1e120864b3f5422f72e9bcdd8cedf3d5464736f6c634300080a0033",
  "immutableReferences": {},
  "source": "pragma solidity >=0.4.22 <0.9.0;\n\ncontract First {\n    int256 public mydata;\n\n    function GetDouble(int256 _data) public returns (int _output) {\n        mydata = _data * 2;\n        return _data * 2;\n    }\n}\n",
  "sourcePath": "/Users/emmanuel/Documents/Solidity/TruffleProject/contracts/first.sol",
  "compiler": {
    "name": "solc",
    "version": "0.8.10+commit.fc410830.Emscripten.clang"
  },
  "schemaVersion": "3.4.4",
  "updatedAt": "2021-12-27T07:26:40.527Z",
  "networkType": "ethereum",
  "devdoc": {
    "kind": "dev",
    "methods": {},
    "version": 1
  },
  "userdoc": {
    "kind": "user",
    "methods": {},
    "version": 1
  }
}