{
  "contractName": "Second",
  "abi": [
    {
      "inputs": [],
      "name": "_data",
      "outputs": [
        {
          "internalType": "int256",
          "name": "",
          "type": "int256"
        }
      ],
      "stateMutability": "view",
      "type": "function",
      "constant": true
    },
    {
      "inputs": [
        {
          "internalType": "address",
          "name": "_first",
          "type": "address"
        }
      ],
      "name": "setFirst",
      "outputs": [],
      "stateMutability": "nonpayable",
      "type": "function"
    },
    {
      "inputs": [],
      "name": "SetData",
      "outputs": [],
      "stateMutability": "nonpayable",
      "type": "function"
    }
  ],
  "bytecode": "0x608060405234801561001057600080fd5b50610332806100206000396000f3fe608060405234801561001057600080fd5b50600436106100415760003560e01c806364bc5c591461004657806368beab3f146100625780636ca89d1a14610080575b600080fd5b610060600480360381019061005b91906101e2565b61008a565b005b61006a6100cd565b6040516100779190610228565b60405180910390f35b6100886100d3565b005b806000806101000a81548173ffffffffffffffffffffffffffffffffffffffff021916908373ffffffffffffffffffffffffffffffffffffffff16021790555050565b60015481565b60008060009054906101000a900473ffffffffffffffffffffffffffffffffffffffff1690508073ffffffffffffffffffffffffffffffffffffffff16636f18a95f60156040518263ffffffff1660e01b81526004016101339190610288565b6020604051808303816000875af1158015610152573d6000803e3d6000fd5b505050506040513d601f19601f8201168201806040525081019061017691906102cf565b60018190555050565b600080fd5b600073ffffffffffffffffffffffffffffffffffffffff82169050919050565b60006101af82610184565b9050919050565b6101bf816101a4565b81146101ca57600080fd5b50565b6000813590506101dc816101b6565b92915050565b6000602082840312156101f8576101f761017f565b5b6000610206848285016101cd565b91505092915050565b6000819050919050565b6102228161020f565b82525050565b600060208201905061023d6000830184610219565b92915050565b6000819050919050565b6000819050919050565b600061027261026d61026884610243565b61024d565b61020f565b9050919050565b61028281610257565b82525050565b600060208201905061029d6000830184610279565b92915050565b6102ac8161020f565b81146102b757600080fd5b50565b6000815190506102c9816102a3565b92915050565b6000602082840312156102e5576102e461017f565b5b60006102f3848285016102ba565b9150509291505056fea2646970667358221220a4d73c0975216d30eec6cba99738978fcc4bcf3c7708189d841357953c31d06f64736f6c634300080a0033",
  "immutableReferences": {},
  "source": "pragma solidity >=0.4.22 <0.9.0;\nimport \"./first.sol\";\n\ncontract Second {\n    address firstAddress;\n    int256 public _data;\n\n    function setFirst(address _first) public {\n        firstAddress = _first;\n    }\n\n    function SetData() public {\n        First h = First(firstAddress);\n        _data = h.GetDouble(21);\n    }\n}\n",
  "sourcePath": "/Users/emmanuel/Documents/Solidity/TruffleProject/contracts/second.sol",
  "compiler": {
    "name": "solc",
    "version": "0.8.10+commit.fc410830.Emscripten.clang"
  },
  "schemaVersion": "3.4.4",
  "updatedAt": "2021-12-27T07:26:40.530Z",
  "networkType": "ethereum",
  "devdoc": {
    "kind": "dev",
    "methods": {},
    "version": 1
  },
  "userdoc": {
    "kind": "user",
    "methods": {},
    "version": 1
  }
}